{
  "contractName": "NFTMarketplace",
  "abi": [
    {
      "inputs": [],
      "stateMutability": "nonpayable",
      "type": "constructor"
    },
    {
      "anonymous": false,
      "inputs": [
        {
          "indexed": true,
          "internalType": "uint256",
          "name": "tokenId",
          "type": "uint256"
        },
        {
          "indexed": false,
          "internalType": "string",
          "name": "name",
          "type": "string"
        },
        {
          "indexed": false,
          "internalType": "string",
          "name": "description",
          "type": "string"
        },
        {
          "indexed": false,
          "internalType": "uint256",
          "name": "price",
          "type": "uint256"
        },
        {
          "indexed": false,
          "internalType": "address",
          "name": "curr_owner",
          "type": "address"
        },
        {
          "indexed": false,
          "internalType": "address",
          "name": "prev_owner",
          "type": "address"
        }
      ],
      "name": "NFTCreated",
      "type": "event"
    },
    {
      "anonymous": false,
      "inputs": [
        {
          "indexed": true,
          "internalType": "uint256",
          "name": "tokenId",
          "type": "uint256"
        },
        {
          "indexed": false,
          "internalType": "uint256",
          "name": "price",
          "type": "uint256"
        }
      ],
      "name": "NFTListed",
      "type": "event"
    },
    {
      "anonymous": false,
      "inputs": [
        {
          "indexed": true,
          "internalType": "uint256",
          "name": "tokenId",
          "type": "uint256"
        },
        {
          "indexed": true,
          "internalType": "address",
          "name": "buyer",
          "type": "address"
        },
        {
          "indexed": false,
          "internalType": "uint256",
          "name": "price",
          "type": "uint256"
        }
      ],
      "name": "NFTSold",
      "type": "event"
    },
    {
      "inputs": [
        {
          "internalType": "uint256",
          "name": "",
          "type": "uint256"
        }
      ],
      "name": "listedTokens",
      "outputs": [
        {
          "internalType": "string",
          "name": "name",
          "type": "string"
        },
        {
          "internalType": "string",
          "name": "description",
          "type": "string"
        },
        {
          "internalType": "uint256",
          "name": "price",
          "type": "uint256"
        },
        {
          "internalType": "bool",
          "name": "isListed",
          "type": "bool"
        },
        {
          "internalType": "address payable",
          "name": "curr_owner",
          "type": "address"
        },
        {
          "internalType": "address",
          "name": "prev_owner",
          "type": "address"
        }
      ],
      "stateMutability": "view",
      "type": "function",
      "constant": true
    },
    {
      "inputs": [],
      "name": "tokenCounter",
      "outputs": [
        {
          "internalType": "uint256",
          "name": "",
          "type": "uint256"
        }
      ],
      "stateMutability": "view",
      "type": "function",
      "constant": true
    },
    {
      "inputs": [],
      "name": "createNFT",
      "outputs": [
        {
          "internalType": "uint256",
          "name": "",
          "type": "uint256"
        }
      ],
      "stateMutability": "nonpayable",
      "type": "function"
    },
    {
      "inputs": [
        {
          "internalType": "uint256",
          "name": "tokenId",
          "type": "uint256"
        },
        {
          "internalType": "string",
          "name": "name",
          "type": "string"
        },
        {
          "internalType": "string",
          "name": "description",
          "type": "string"
        },
        {
          "internalType": "uint256",
          "name": "price",
          "type": "uint256"
        }
      ],
      "name": "listNFT",
      "outputs": [],
      "stateMutability": "nonpayable",
      "type": "function"
    },
    {
      "inputs": [
        {
          "internalType": "uint256",
          "name": "tokenId",
          "type": "uint256"
        }
      ],
      "name": "buyNFT",
      "outputs": [],
      "stateMutability": "payable",
      "type": "function",
      "payable": true
    },
    {
      "inputs": [],
      "name": "fetchListedNFTs",
      "outputs": [
        {
          "internalType": "uint256[]",
          "name": "",
          "type": "uint256[]"
        }
      ],
      "stateMutability": "view",
      "type": "function",
      "constant": true
    }
  ],
  "bytecode": "0x608060405234801561000f575f80fd5b505f8081905550611632806100235f395ff3fe608060405260043610610054575f3560e01c806351ed8288146100585780635a9d1ac314610074578063831086a2146100b55780638a97ec2a146100df578063d082e38114610109578063d187df9b14610133575b5f80fd5b610072600480360381019061006d9190610b87565b61015b565b005b34801561007f575f80fd5b5061009a60048036038101906100959190610b87565b6105fa565b6040516100ac96959493929190610cc4565b60405180910390f35b3480156100c0575f80fd5b506100c9610789565b6040516100d69190610de8565b60405180910390f35b3480156100ea575f80fd5b506100f36108ae565b6040516101009190610e08565b60405180910390f35b348015610114575f80fd5b5061011d61090d565b60405161012a9190610e08565b60405180910390f35b34801561013e575f80fd5b5061015960048036038101906101549190610f4d565b610912565b005b5f60015f8381526020019081526020015f206040518060c00160405290815f8201805461018790611016565b80601f01602080910402602001604051908101604052809291908181526020018280546101b390611016565b80156101fe5780601f106101d5576101008083540402835291602001916101fe565b820191905f5260205f20905b8154815290600101906020018083116101e157829003601f168201915b5050505050815260200160018201805461021790611016565b80601f016020809104026020016040519081016040528092919081815260200182805461024390611016565b801561028e5780601f106102655761010080835404028352916020019161028e565b820191905f5260205f20905b81548152906001019060200180831161027157829003601f168201915b5050505050815260200160028201548152602001600382015f9054906101000a900460ff161515151581526020016003820160019054906101000a900473ffffffffffffffffffffffffffffffffffffffff1673ffffffffffffffffffffffffffffffffffffffff1673ffffffffffffffffffffffffffffffffffffffff168152602001600482015f9054906101000a900473ffffffffffffffffffffffffffffffffffffffff1673ffffffffffffffffffffffffffffffffffffffff1673ffffffffffffffffffffffffffffffffffffffff1681525050905080606001516103ac576040517f08c379a00000000000000000000000000000000000000000000000000000000081526004016103a390611090565b60405180910390fd5b806040015134146103f2576040517f08c379a00000000000000000000000000000000000000000000000000000000081526004016103e9906110f8565b60405180910390fd5b806080015173ffffffffffffffffffffffffffffffffffffffff166108fc3490811502906040515f60405180830381858888f19350505050158015610439573d5f803e3d5ffd5b5033816080019073ffffffffffffffffffffffffffffffffffffffff16908173ffffffffffffffffffffffffffffffffffffffff168152505080608001518160a0019073ffffffffffffffffffffffffffffffffffffffff16908173ffffffffffffffffffffffffffffffffffffffff16815250508060015f8481526020019081526020015f205f820151815f0190816104d391906112b3565b5060208201518160010190816104e991906112b3565b50604082015181600201556060820151816003015f6101000a81548160ff02191690831515021790555060808201518160030160016101000a81548173ffffffffffffffffffffffffffffffffffffffff021916908373ffffffffffffffffffffffffffffffffffffffff16021790555060a0820151816004015f6101000a81548173ffffffffffffffffffffffffffffffffffffffff021916908373ffffffffffffffffffffffffffffffffffffffff1602179055509050503373ffffffffffffffffffffffffffffffffffffffff16827f6329e40c0365262ebbff5ca819385c2b9713dcaa050ed07866d72c441395699a83604001516040516105ee9190610e08565b60405180910390a35050565b6001602052805f5260405f205f91509050805f01805461061990611016565b80601f016020809104026020016040519081016040528092919081815260200182805461064590611016565b80156106905780601f1061066757610100808354040283529160200191610690565b820191905f5260205f20905b81548152906001019060200180831161067357829003601f168201915b5050505050908060010180546106a590611016565b80601f01602080910402602001604051908101604052809291908181526020018280546106d190611016565b801561071c5780601f106106f35761010080835404028352916020019161071c565b820191905f5260205f20905b8154815290600101906020018083116106ff57829003601f168201915b505050505090806002015490806003015f9054906101000a900460ff16908060030160019054906101000a900473ffffffffffffffffffffffffffffffffffffffff1690806004015f9054906101000a900473ffffffffffffffffffffffffffffffffffffffff16905086565b60605f805490505f805b828110156107e35760015f8281526020019081526020015f206003015f9054906101000a900460ff16156107d05781806107cc906113af565b9250505b80806107db906113af565b915050610793565b505f8167ffffffffffffffff8111156107ff576107fe610e29565b5b60405190808252806020026020018201604052801561082d5781602001602082028036833780820191505090505b5090505f805b848110156108a35760015f8281526020019081526020015f206003015f9054906101000a900460ff16156108905780838381518110610875576108746113f6565b5b602002602001018181525050818061088c906113af565b9250505b808061089b906113af565b915050610833565b508194505050505090565b5f805f5490505f808154809291906108c5906113af565b9190505550807f7b9646cf5b455c5a6f8804ad2c8dad14b7843a4173066834499f4af405ae810e5f33336040516108fe939291906114d1565b60405180910390a28091505090565b5f5481565b5f8111610954576040517f08c379a000000000000000000000000000000000000000000000000000000000815260040161094b90611576565b60405180910390fd5b60015f8581526020019081526020015f206003015f9054906101000a900460ff16156109b5576040517f08c379a00000000000000000000000000000000000000000000000000000000081526004016109ac906115de565b60405180910390fd5b6040518060c001604052808481526020018381526020018281526020016001151581526020013373ffffffffffffffffffffffffffffffffffffffff1681526020013373ffffffffffffffffffffffffffffffffffffffff1681525060015f8681526020019081526020015f205f820151815f019081610a3591906112b3565b506020820151816001019081610a4b91906112b3565b50604082015181600201556060820151816003015f6101000a81548160ff02191690831515021790555060808201518160030160016101000a81548173ffffffffffffffffffffffffffffffffffffffff021916908373ffffffffffffffffffffffffffffffffffffffff16021790555060a0820151816004015f6101000a81548173ffffffffffffffffffffffffffffffffffffffff021916908373ffffffffffffffffffffffffffffffffffffffff160217905550905050837fa6cd73580a273eec6c1026108f6b63479fbaef5356dde4ff43e4b38dd187485f82604051610b359190610e08565b60405180910390a250505050565b5f604051905090565b5f80fd5b5f80fd5b5f819050919050565b610b6681610b54565b8114610b70575f80fd5b50565b5f81359050610b8181610b5d565b92915050565b5f60208284031215610b9c57610b9b610b4c565b5b5f610ba984828501610b73565b91505092915050565b5f81519050919050565b5f82825260208201905092915050565b5f5b83811015610be9578082015181840152602081019050610bce565b5f8484015250505050565b5f601f19601f8301169050919050565b5f610c0e82610bb2565b610c188185610bbc565b9350610c28818560208601610bcc565b610c3181610bf4565b840191505092915050565b610c4581610b54565b82525050565b5f8115159050919050565b610c5f81610c4b565b82525050565b5f73ffffffffffffffffffffffffffffffffffffffff82169050919050565b5f610c8e82610c65565b9050919050565b610c9e81610c84565b82525050565b5f610cae82610c65565b9050919050565b610cbe81610ca4565b82525050565b5f60c0820190508181035f830152610cdc8189610c04565b90508181036020830152610cf08188610c04565b9050610cff6040830187610c3c565b610d0c6060830186610c56565b610d196080830185610c95565b610d2660a0830184610cb5565b979650505050505050565b5f81519050919050565b5f82825260208201905092915050565b5f819050602082019050919050565b610d6381610b54565b82525050565b5f610d748383610d5a565b60208301905092915050565b5f602082019050919050565b5f610d9682610d31565b610da08185610d3b565b9350610dab83610d4b565b805f5b83811015610ddb578151610dc28882610d69565b9750610dcd83610d80565b925050600181019050610dae565b5085935050505092915050565b5f6020820190508181035f830152610e008184610d8c565b905092915050565b5f602082019050610e1b5f830184610c3c565b92915050565b5f80fd5b5f80fd5b7f4e487b71000000000000000000000000000000000000000000000000000000005f52604160045260245ffd5b610e5f82610bf4565b810181811067ffffffffffffffff82111715610e7e57610e7d610e29565b5b80604052505050565b5f610e90610b43565b9050610e9c8282610e56565b919050565b5f67ffffffffffffffff821115610ebb57610eba610e29565b5b610ec482610bf4565b9050602081019050919050565b828183375f83830152505050565b5f610ef1610eec84610ea1565b610e87565b905082815260208101848484011115610f0d57610f0c610e25565b5b610f18848285610ed1565b509392505050565b5f82601f830112610f3457610f33610e21565b5b8135610f44848260208601610edf565b91505092915050565b5f805f8060808587031215610f6557610f64610b4c565b5b5f610f7287828801610b73565b945050602085013567ffffffffffffffff811115610f9357610f92610b50565b5b610f9f87828801610f20565b935050604085013567ffffffffffffffff811115610fc057610fbf610b50565b5b610fcc87828801610f20565b9250506060610fdd87828801610b73565b91505092959194509250565b7f4e487b71000000000000000000000000000000000000000000000000000000005f52602260045260245ffd5b5f600282049050600182168061102d57607f821691505b6020821081036110405761103f610fe9565b5b50919050565b7f546f6b656e206e6f7420666f722073616c6500000000000000000000000000005f82015250565b5f61107a601283610bbc565b915061108582611046565b602082019050919050565b5f6020820190508181035f8301526110a78161106e565b9050919050565b7f496e636f727265637420707269636500000000000000000000000000000000005f82015250565b5f6110e2600f83610bbc565b91506110ed826110ae565b602082019050919050565b5f6020820190508181035f83015261110f816110d6565b9050919050565b5f819050815f5260205f209050919050565b5f6020601f8301049050919050565b5f82821b905092915050565b5f600883026111727fffffffffffffffffffffffffffffffffffffffffffffffffffffffffffffffff82611137565b61117c8683611137565b95508019841693508086168417925050509392505050565b5f819050919050565b5f6111b76111b26111ad84610b54565b611194565b610b54565b9050919050565b5f819050919050565b6111d08361119d565b6111e46111dc826111be565b848454611143565b825550505050565b5f90565b6111f86111ec565b6112038184846111c7565b505050565b5b818110156112265761121b5f826111f0565b600181019050611209565b5050565b601f82111561126b5761123c81611116565b61124584611128565b81016020851015611254578190505b61126861126085611128565b830182611208565b50505b505050565b5f82821c905092915050565b5f61128b5f1984600802611270565b1980831691505092915050565b5f6112a3838361127c565b9150826002028217905092915050565b6112bc82610bb2565b67ffffffffffffffff8111156112d5576112d4610e29565b5b6112df8254611016565b6112ea82828561122a565b5f60209050601f83116001811461131b575f8415611309578287015190505b6113138582611298565b86555061137a565b601f19841661132986611116565b5f5b828110156113505784890151825560018201915060208501945060208101905061132b565b8683101561136d5784890151611369601f89168261127c565b8355505b6001600288020188555050505b505050505050565b7f4e487b71000000000000000000000000000000000000000000000000000000005f52601160045260245ffd5b5f6113b982610b54565b91507fffffffffffffffffffffffffffffffffffffffffffffffffffffffffffffffff82036113eb576113ea611382565b5b600182019050919050565b7f4e487b71000000000000000000000000000000000000000000000000000000005f52603260045260245ffd5b50565b5f6114315f83610bbc565b915061143c82611423565b5f82019050919050565b5f819050919050565b5f61146961146461145f84611446565b611194565b610b54565b9050919050565b6114798161144f565b82525050565b5f61149961149461148f84610c65565b611194565b610c65565b9050919050565b5f6114aa8261147f565b9050919050565b5f6114bb826114a0565b9050919050565b6114cb816114b1565b82525050565b5f60a0820190508181035f8301526114e881611426565b905081810360208301526114fb81611426565b905061150a6040830186611470565b61151760608301856114c2565b6115246080830184610cb5565b949350505050565b7f5072696365206d75737420626520706f736974697665000000000000000000005f82015250565b5f611560601683610bbc565b915061156b8261152c565b602082019050919050565b5f6020820190508181035f83015261158d81611554565b9050919050565b7f546f6b656e20616c7265616479206c69737465640000000000000000000000005f82015250565b5f6115c8601483610bbc565b91506115d382611594565b602082019050919050565b5f6020820190508181035f8301526115f5816115bc565b905091905056fea2646970667358221220d141c3d1426e3a19a9be96108720386ebc1c2186c3100af2ddeb4b5cf49c5fd964736f6c63430008140033",
  "immutableReferences": {},
  "source": "// SPDX-License-Identifier: MIT\r\npragma solidity ^0.8.0;\r\n\r\ncontract NFTMarketplace {\r\n    uint256 public tokenCounter;\r\n\r\n    struct ListedToken {\r\n        string name;\r\n        string description;\r\n        uint256 price;\r\n        bool isListed;\r\n        address payable curr_owner;\r\n        address prev_owner;\r\n    }\r\n\r\n    mapping(uint256 => ListedToken) public listedTokens; // TODO: Doubt\r\n\r\n    event NFTCreated(uint256 indexed tokenId, string name, string description, uint256 price, address curr_owner, address prev_owner);\r\n    event NFTListed(uint256 indexed tokenId, uint256 price);\r\n    event NFTSold(uint256 indexed tokenId, address indexed buyer, uint256 price);\r\n\r\n    constructor() {\r\n        tokenCounter = 0;\r\n    }\r\n\r\n    function createNFT() public returns (uint256) {\r\n        uint256 newTokenId = tokenCounter;\r\n        tokenCounter++;\r\n\r\n        // Emit event for NFT creation\r\n        emit NFTCreated(newTokenId, \"\", \"\", 0, payable(msg.sender), msg.sender);\r\n        return newTokenId;\r\n    }\r\n\r\n    function listNFT(uint256 tokenId, string memory name, string memory description, uint256 price) public {\r\n        require(price > 0, \"Price must be positive\");\r\n        require(!listedTokens[tokenId].isListed, \"Token already listed\");\r\n\r\n        listedTokens[tokenId] = ListedToken(\r\n            name,\r\n            description,\r\n            price,\r\n            true,\r\n            payable(msg.sender),\r\n            msg.sender\r\n        );\r\n\r\n        // Emit event for NFT listing\r\n        emit NFTListed(tokenId, price);\r\n    }\r\n\r\n    function buyNFT(uint256 tokenId) public payable {\r\n        ListedToken memory tokenData = listedTokens[tokenId];\r\n        require(tokenData.isListed, \"Token not for sale\");\r\n        require(msg.value == tokenData.price, \"Incorrect price\");\r\n\r\n        payable(tokenData.curr_owner).transfer(msg.value);\r\n        tokenData.curr_owner = payable(msg.sender);\r\n        tokenData.prev_owner = tokenData.curr_owner;\r\n\r\n        listedTokens[tokenId] = tokenData;\r\n        emit NFTSold(tokenId, msg.sender, tokenData.price);\r\n    }\r\n\r\n    function fetchListedNFTs() public view returns (uint256[] memory) {\r\n        uint256 totalTokens = tokenCounter;\r\n        uint256 listedCount = 0;\r\n\r\n        for (uint256 i = 0; i < totalTokens; i++) {\r\n            if (listedTokens[i].isListed) {\r\n                listedCount++;\r\n            }\r\n        }\r\n\r\n        uint256[] memory listedTokensArr = new uint256[](listedCount);\r\n        uint256 index = 0;\r\n\r\n        for (uint256 i = 0; i < totalTokens; i++) {\r\n            if (listedTokens[i].isListed) {\r\n                listedTokensArr[index] = i;\r\n                index++;\r\n            }\r\n        }\r\n\r\n        return listedTokensArr;\r\n    }\r\n}",
  "sourcePath": "C:\\Users\\lovis\\Downloads\\Lovish\\Lovish\\contracts\\NFTMarketplace.sol",
  "compiler": {
    "name": "solc",
    "version": "0.8.20+commit.a1b79de6.Emscripten.clang"
  },
  "schemaVersion": "3.4.16",
  "updatedAt": "2024-10-08T03:16:20.164Z",
  "networkType": "ethereum",
  "devdoc": {
    "kind": "dev",
    "methods": {},
    "version": 1
  },
  "userdoc": {
    "kind": "user",
    "methods": {},
    "version": 1
  }
}